:100000000C942A000C9447000C9447000C94470071
:100010000C9447000C9447000C9447000C94470044
:100020000C9447000C9447000C9447000C94470034
:100030000C9447000C9447000C9447000C94470024
:100040000C9447000C9447000C9447000C94470014
:100050000C94470011241FBECFE5D8E0DEBFCDBF12
:1000600010E0A0E6B0E0E8EDF4E102C005900D92EA
:10007000A63BB107D9F715E0A6EBB0E001C01D9291
:10008000AA30B107E1F70E94CA050C946A0A0C94E1
:1000900000009C018AE08093B90484E18093BA0453
:1000A0008EE18093BB0488E28093BC04EDEBF4E026
:1000B0001082148210861486319684E0E13CF807A1
:1000C000B9F7D9013C968D91819384E0E33DF8071F
:1000D000D1F7089581E08093E3008093E40086E007
:1000E0008093E5001092E600A9EBB4E0E7EEF0E0C3
:1000F0008C91808314968C911497808718968C919C
:10010000189784871C968C911C97808B50968C91A5
:100110005097848B1196319684E0AD3BB80741F738
:1001200083E68093CF0192E89093D00193E590937A
:10013000D1018093D2011092EB001092EC0010924A
:10014000ED001092EE00FD017096AFEFB0E08191EE
:100150008D9384E0E33DF807D1F7EFE0F1E01192F1
:1001600081E0EF34F807D9F780E0E82FF0E0E15BB9
:10017000FE4F10828F5F8038C1F70895E3EFF0E003
:10018000A1ECB4E0848114968C93149781918D93A3
:1001900080E0E73FF807B1F78AE308959091B9044A
:1001A0008091E7009817B1F49091BA048091E8002B
:1001B000981781F49091BB048091E900981751F44D
:1001C00020E09091BC048091EA00981321E081E046
:1001D000282701C020E0822F089581EC94E0089543
:1001E0009091F3008091C1049817C1F49091F400AC
:1001F0008091C204981791F49091F5008091C30406
:10020000981761F49091F6008091C404981731F426
:1002100081EC94E00E94800581E0089580E00895DB
:10022000DF93CF93CDB7DEB72E970FB6F894DEBF2E
:100230000FBECDBFDE011996E0E6F0E086E001904A
:100240000D928150E1F7CE0109960E946104198256
:100250001A821B821C828FEF8D838E838F83888707
:10026000CE0101960E948005CE0105960E948A0566
:10027000E5ECF4E0A7EFB0E081918D9384E0E93CF8
:10028000F807D1F785E38093D30181E08093D4010F
:1002900083E08093D50182E38093D60184E080934C
:1002A000D7018091C1048093D8018091C2048093CA
:1002B000D9018091C3048093DA018091C4048093B2
:1002C000DB018FEF8093DC0181E391E02E960FB686
:1002D000F894DEBF0FBECDBFCF91DF9108951F937D
:1002E000DF93CF93CDB7DEB72E970FB6F894DEBF6E
:1002F0000FBECDBFDE011996E6E6F0E086E0019084
:100300000D928150E1F7CE0109960E946104198295
:100310001A821B821C821FEF1D831E831F83188776
:10032000CE0101960E948005CE0105960E948A05A5
:1003300085E38093D30191E09093D4019093D5010C
:1003400087E38093D60123E02093D7019093D801CF
:1003500089E78093D9012093DA0189E38093DB0157
:1003600082E08093DC018093DD018CEB8093DE01E1
:100370008DE38093DF0187E08093E0019093E101BA
:1003800080E98093E20188E48093E3018AE9809325
:10039000E40183EB8093E5018BE88093E6018DE136
:1003A0008093E7018CE08093E8012093E90181E4E8
:1003B0008093EA0186E58093EB0182E58093EC016E
:1003C0001093ED0182E491E02E960FB6F894DEBF13
:1003D0000FBECDBFCF91DF911F910895C498962F86
:1003E0009F71982B9FB9779BFECF1FB8779BFECF4D
:1003F00067FF03C01FB8779BFECFC49A8FB10895E3
:10040000C4986F71682B6FB9779BFECF4FB9779BFC
:10041000FECFC49A0895AC01FB01C4988AE38FB95A
:10042000779BFECF9A01DF0107C01FB8779BFECFF5
:10043000215030408FB18D9321153105B1F7E40F74
:10044000F51F1082C49A08959C01FB01C4988AE7A5
:100450008FB9779BFECF07C080818FB9779BFECF86
:1004600021503040319621153105B1F7C49A0895D5
:100470001F93CF93DF93182FC82FD0E0C076D07092
:100480008091B60090E0C817D90791F080EA6FE13B
:1004900043E00E94000285E0D595C7958A95E1F773
:1004A00080E86FE14C2F0E94000210761093B60096
:1004B000DF91CF911F9108951F93182F0E9438024A
:1004C00080E0612F0E94EE011F9108950F931F930A
:1004D000182F062F0E94380280E4612F402F0E94BF
:1004E00000021F910F910895682F84ED0E9466020B
:1004F00082ED61E00E94660288E28A95F1F78AEE59
:100500000E945C0280FDFBCF82ED60E00E946602EB
:1005100089ED0E945C0290E008950F931F93982F3D
:10052000162F072F84ED692F0E94660286ED612F3A
:100530000E94660287ED602F0E94660218E203C0E7
:10054000812F8A95F1F78AEE0E945C0280FDF8CF38
:100550001F910F910895682F677085E70E946602CA
:1005600008950F931F938C01BC9AC49A87B3806C33
:1005700087BBBD9AC69AC79A80E58DB9709A8FEFEE
:1005800060E04FEF0E94000280E090E00197F1F7F9
:100590001092B8001092B70088E060E00E946602F6
:1005A00089E060E00E9466028CE060E00E946602E2
:1005B0008DE060E00E9466028AE06EEF0E946602B3
:1005C0008BE069E10E94660284E06FEF0E946602A0
:1005D00085E069E10E94660286E06FEF0E94660294
:1005E00087E06FE10E94660288E360EA0E9466028B
:1005F00088E26FE30E94660289E260E30E9466027D
:1006000080E369EF0E94660281E367EF0E94660261
:1006100080EC6DE00E94660281EC60E00E94660260
:1006200080E862EC42E30E94000286EC62E10E94F4
:10063000660287EC6CE00E94660284EC62E10E9434
:1006400066028AEC6CED0E9466028BEC65E00E940B
:10065000660284EEF80160810E94660285EEF80170
:1006600061810E94660282EEF80162810E94660248
:1006700083EEF80163810E94660280EEF8016481D6
:100680000E94660281EEF80165810E94660280E1A7
:1006900060E071E00E948D028FE10E94380280E8E4
:1006A0006BE140EC0E94000280E86FE144E00E94B0
:1006B00000021F910F91089582E70E945C02089545
:1006C00081E10E94740220E0892B09F021E0822F51
:1006D00008950F931F93CF93DF93EC018B010FC00D
:1006E0008CE10E945C0281FF0AC080E86FE140E873
:1006F0000E94000280EA6FE140E80E94000280E070
:100700006FE10E94EE0183FDEBCF82E06FEF0E946C
:10071000660283E069E10E946602CE018150682F83
:1007200086E00E9466029E012150364E87E0632FCC
:100730000E9466028AE760E040E00E940002CE016B
:10074000B8010E94240280E86FE148E00E940002A4
:10075000DF91CF911F910F91089589E30E945C0270
:10076000811181E00895AF92BF92CF92DF92EF9214
:10077000FF920F931F93CF93DF936C015B0189E38B
:100780000E945C02882319F400E010E081C000910F
:10079000B7001091B80080E0602F0E946602012F20
:1007A000110F110B81E0602F0E9466028AE360E066
:1007B0000E94EE01182F8AE360E00E94EE01382FBC
:1007C00020E0C12FD0E0C22BD32BD093B800C09330
:1007D000B7008AE360E00E94EE01E82E8AE360E061
:1007E0000E94EE01F82E8AE360E00E94EE01082FDD
:1007F00010E08AE360E00E94EE01382F20E0202B19
:10080000312B27FD03C000E010E012C00E2D10E0D8
:100810009F2D80E0082B192BC60101970450104032
:100820008017910708F48C01C801B5010E940B02E2
:100830008CE06C2F0E9466026D2F772767FD7A95FA
:100840008DE00E9466028AE1C030D80774F0CE01C4
:100850008E5F682F8CE00E946602CE5FD9416D2FBB
:10086000772767FD7A958CE00CC0CE018150682F08
:100870008CE00E94660221976D2F772767FD7A959D
:100880008DE00E94660280E86EE140E40E94000272
:10089000C801DF91CF911F910F91FF90EF90DF90F2
:1008A000CF90BF90AF900895E3EDF4E0DC019FEFAF
:1008B00090838D918683319684E0E93DF807C1F7F6
:1008C0000895AC0120E030E0F901ED52FB4FDA0170
:1008D000A20FB31F8C9180832F5F3F4F26303105CD
:1008E00099F70895E3EDF4E0A9EBB0E080818C93F3
:1008F000868116968C9316973196119684E0E93D81
:10090000F807A1F788E08093C5001092C60008950B
:10091000AF92BF92CF92DF92EF92FF920F931F930D
:10092000DF93CF93CDB7DEB7C85CD0400FB6F89455
:10093000DEBF0FBECDBF8C016B01ADB6BEB6209140
:10094000DF043091E0044091E1045091E2046091B1
:10095000E3047091E4048091E5049091E6040E9420
:100960004108C8018D962DB73EB7281B390B0FB62D
:10097000F8943EBF0FBE2DBFEDB6FEB60894E11C45
:10098000F11C20E030E0F701E20FF31FD901A45978
:10099000BF4F8C9180832F5F3F4F2031310599F7F6
:1009A00090E108C0F701EA0FFB1FA359BF4F8C91DC
:1009B00080839F5FA92FB0E09932A1F78DE0F70106
:1009C00081A78AE082A72BE2A801465D5F4F09C09C
:1009D000F701EA0FFB1FAC0DBD1D9B978C91808327
:1009E0002F5FA22FB0E0A417B50790F32091DF048A
:1009F0003091E0044091E1045091E2046091E304FD
:100A00007091E4048091E5049091E6048D010E94C8
:100A1000D407CE0101960091DF041091E0042091EB
:100A2000E1043091E2044091E3045091E4046091C8
:100A3000E5047091E6040E9464072091DF04309180
:100A4000E0044091E1045091E2046091E30470916C
:100A5000E4048091E5049091E6040E94CA0681E0D6
:100A600090E00FB6F894BEBE0FBEADBEC853DF4FC8
:100A70000FB6F894DEBF0FBECDBFCF91DF911F91AF
:100A80000F91FF90EF90DF90CF90BF90AF900895BF
:100A9000EF92FF920F931F93CF93DF93EC018B01A3
:100AA0007A010E94AD0820E030E0F901E152FB4FED
:100AB000DE01A20FB31F8C9180832F5F3F4F243044
:100AC000310599F71093E4040093E304F092E604EF
:100AD000E092E5040E948406DF91CF911F910F916F
:100AE000FF90EF900895E8EEF4E0108214823196C2
:100AF00084E0EC3EF807C9F786E08093E7040895A8
:100B0000DC01E8EEF4E08D91819384E0EC3EF8079F
:100B1000D1F70895DC01ECEEF4E08D91819384E04F
:100B2000E03FF807D1F70895E8EEF4E0A3EDB0E078
:100B3000848114968C93149781918D9384E0EC3E7C
:100B4000F807B1F785E48093C7001092C8001092AF
:100B5000CB0085E08093CC0080E48093CD001092A0
:100B6000CE0080E88093CF008091E7048093D0008E
:100B700008958093E70408959093C9008093CA0074
:100B800087EC90E064E10E94270A9093D100809363
:100B9000D20008950E94AD0880E395E729E130E096
:100BA000F9013197F1F70197D9F70E94840680E0A7
:100BB00090E008950F931F930E94530A0E94100122
:100BC0008C010E946A0084E490E00E941D0A83E484
:100BD00090E00E94220AC8010E94030A81E10E945B
:100BE000B9050E9494050E947204C8014C960E94A7
:100BF000BC05C8018A9669EB70E00E9469031F91E9
:100C00000F9108950F931F93CF93DF93EC018B0106
:100C10000E94530A0E94720481E10E94B9050E9459
:100C20009405CE010E94030A20E030E00AC0F901D9
:100C3000E754FF4FD801A20FB31F8C9182A72F5FFB
:100C40003F4F2C173D0798F3CE014C960E94BC05F0
:100C5000CE018A9669EB70E00E946903DF91CF9123
:100C60001F910F9108950F931F930E94530A0E94A2
:100C70006F018C010E946A0084E490E00E941D0ACA
:100C800083E490E00E94220AC8010E94030A81E1E5
:100C90000E94B9050E9494050E947204C8014C96F6
:100CA0000E94BC05C8018A9669EB70E00E94690346
:100CB0001F910F9108950F931F93CF93DF93EC0132
:100CC0000E94530A80E094E069EB70E00E94B30355
:100CD00008EA11E6892B91F0FE010995F801319798
:100CE000F1F7882311F081E00AC00E94530A80E0E6
:100CF00094E069EB70E00E94B303ECCF80E0DF91F9
:100D0000CF911F910F9108950E9433060E94530ABC
:100D100002C00E9433068EEC90E00E945B0688239E
:100D2000C1F30E94BE000E94DA050895EF92FF927F
:100D30001F93CF93DF93EC017B01142F0E94530A82
:100D40000E94720486E00E94B9050E949405812FDA
:100D50000E94BC0920E030E00AC0F901E754FF4FCF
:100D6000D701A20FB31F8C9186AB2F5F3F4F2C177B
:100D70003D0798F3CE0188960E94BC05CE01C69629
:100D800069EB70E00E946903DF91CF911F91FF90A2
:100D9000EF9008951F93DF93CF93CDB7DEB72E97D3
:100DA0000FB6F894DEBF0FBECDBF2F8338874987BB
:100DB0005A876B877C878D879E87DE011196EDE9C8
:100DC000F0E086E001900D928150E1F70E94ED0085
:100DD0000E948005CE0107960E948A05CE010196E9
:100DE0000E9461048B859C850E9410098D859E85DB
:100DF0000E94150981E090E00E94920960E070E095
:100E000080E090E021E030E040E050E00E9467099F
:100E100080E197E229E130E0F9013197F1F701979C
:100E2000D9F78AE199E00E945B068823F9F080E017
:100E300090E060E070E040E10E94960615E0812FAE
:100E400065E00E945E0A992339F480E090E060E05A
:100E500070E041E10E9496061F5F133359F18AE169
:100E600099E00E945B06882351F324C015E0812F8E
:100E700065E00E945E0A992339F480E090E060E02A
:100E800070E041E10E9496061F5F133399F08AE1FA
:100E900099E00E945B06882351F38AE199E00E9461
:100EA0005B068823D1F380E090E060E070E040E1F1
:100EB0000E9496062E960FB6F894DEBF0FBECDBFE9
:100EC000CF91DF911F910895EF92FF920F931F939F
:100ED000DF93CF93CDB7DEB72E970FB6F894DEBF72
:100EE0000FBECDBF7C010F83188729873A874B87B8
:100EF0005C876D877E87DE011196E3EAF0E086E08D
:100F000001900D928150E1F70E94ED000E94800552
:100F1000CE0107960E948A05CE0101960E946104C7
:100F20008B859C850E9410098D859E850E941509E0
:100F300080E090E00E9492098AE199E00E945B06BD
:100F40008823D1F30E94A1098C0120E030E00BC07E
:100F5000F701E20FF31FD901A754BF4FD6968C912A
:100F600080832F5F3F4F2017310790F3980140E0B7
:100F700050E060E070E080E090E00E94670980E06F
:100F800090E060E070E040E10E949606C8012E9675
:100F90000FB6F894DEBF0FBECDBFCF91DF911F918A
:100FA0000F91FF90EF900895CF92DF92EF92FF9212
:100FB0000F931F93DF93CF93CDB7DEB72E970FB666
:100FC000F894DEBF0FBECDBF2F83388749875A877D
:100FD0006B877C878D879E876801DE011196E9EA21
:100FE000F0E086E001900D928150E1F70E94ED0063
:100FF0000E948005CE0107960E948A05CE010196C7
:101000000E9461048B859C850E9410098D859E85B8
:101010000E9415090E949709823019F5C6010E94A5
:10102000920915E0812F65E00E945E0A992329F458
:10103000C601B70148E10E9496061F5F133389F08D
:101040008AE199E00E945B06882361F3B60180E0A3
:1010500090E020E030E040E050E00E94670981E04D
:1010600001C080E02E960FB6F894DEBF0FBECDBF54
:10107000CF91DF911F910F91FF90EF90DF90CF9074
:1010800008951F93DF93CF93CDB7DEB72E970FB69A
:10109000F894DEBF0FBECDBF2F83388749875A87AC
:1010A0006B877C878D879E87DE011196EFEAF0E0E3
:1010B00086E001900D928150E1F70E94ED000E94C0
:1010C0008005CE0107960E948A05CE0101960E94F6
:1010D00061048B859C850E9410098D859E850E94E8
:1010E000150981E090E00E94920915E0812F65E0EA
:1010F0000E945E0A992351F480E090E060E070E085
:1011000042E00E94960681E00E949A091F5F133315
:1011100011F480E018C08AE199E00E945B06882300
:1011200029F361E070E080E090E021E030E040E011
:1011300050E00E94670980E090E060E070E040E1EC
:101140000E94960681E02E960FB6F894DEBF0FBE81
:10115000CDBFCF91DF911F910895FF920F931F9301
:1011600082E3F82E8F2D8A95F1F707E910E0C80188
:101170000E94B10282E00E94AB02FA94F1F7C8012A
:101180000E9454040E9473050E94FA090E94CF082D
:10119000C8010E9449001F910F91FF90089510927D
:1011A000F1041092F0041092F3041092F2041092E1
:1011B000F5041092F4041092F6041092F7041092C1
:1011C000F8041092F9041092FA041092FB041092A1
:1011D000FC041092FD0480E090E59093010580935B
:1011E000000580E094E0909303058093020510923F
:1011F00005051092040508959091DB0080E0209190
:10120000DC0030E0282B392BC90108959091DD00D6
:1012100080E02091DE0030E0282B392BC9010895B1
:101220009093F3048093F20408959093F5048093CF
:10123000F4040895DF93CF9300D000D0CDB7DEB78C
:101240008091FE049091FF04A0E0B0E02091FA04A8
:101250003091FB044091FC045091FD04820F931FD8
:10126000A41FB51F89839A83AB83BC83FE01349688
:10127000A3EEB0E090818C91981711F080E020C02F
:1012800031971196EC17FD07A9F78091DF00809345
:10129000F9048091E0008093F8048091E10080934C
:1012A000F7048091E2008093F6048091E800823197
:1012B00031F482E090E09093F1048093F00481E0B7
:1012C0000F900F900F900F90CF91DF910895EF92B4
:1012D000FF920F931F93E090FA04F090FB040091AB
:1012E000FC041091FD04E60EF71E081F191FE09282
:1012F000FA04F092FB040093FC041093FD04EAEF5F
:10130000F4E0B291A29192918291820F931FA41F57
:10131000B51F80839183A283B3831F910F91FF90A8
:10132000EF9008959093FF048093FE0408958091B8
:10133000F0040895863020F48093F0041092F104B4
:1013400008952091E70022952F708091C70090E0CA
:101350008F709070820F911D880F991F880F991FB1
:101360005091C90040E02091CA0030E0242B352B79
:10137000281B390BC9010895CF93DF93282F909133
:10138000F2048091F3048093DB009093DC00909151
:10139000F4048091F5048093DD009093DE00CFED9E
:1013A000D0E0E9EFF4E08481888380818C8321960A
:1013B000319780E0C33ED807B1F780910005909146
:1013C00001059C83822B8D839091020580910305FA
:1013D0008E839F8390910405809105058A879B8762
:1013E000CE01089764E10E94270A98878987DF91D8
:1013F000CF910895109207051092060510920905E5
:101400001092080508950896309106052091070569
:101410002093DB003093DC00309108052091090512
:101420002093DD003093DE009093DF008093E00096
:101430001092E1001092E2000895909307058093C6
:101440000605089590930905809308050895EF9285
:10145000FF920F931F93FC01EE24FF24870140E0CD
:1014600050E070E00FC0308120E0818190E0822B5D
:10147000932BA0E0B0E0E80EF91E0A1F1B1F4E5F81
:101480005F4F32964617570774F398014427552744
:1014900030E02E0D3F1D20953095C9011F910F9111
:1014A000FF90EF90089580E094E0E9EBF0E0DF0139
:1014B0009C011D9221503040E1F70895991B79E07D
:1014C00004C0991F961708F0961B881F7A95C9F7D4
:0814D00080950895F894FFCF08
:1014D800FFFFFFFFFFFFFFFFFFFFFFFF4745542010
:1014E8002F20485454502F312E310D0A00486F7365
:1014F800743A203139322E3136382E312E343A367C
:10150800353433320D0A0090489AB38B1DEC55F9E7
:101518009012FDEC55F99012FDEC55F99012FDEC86
:0615280055F99012FD00D0
:00000001FF
