:100000000C942A000C9447000C9447000C94470071
:100010000C9447000C9447000C9447000C94470044
:100020000C9447000C9447000C9447000C94470034
:100030000C9447000C9447000C9447000C94470024
:100040000C9447000C9447000C9447000C94470014
:100050000C94470011241FBECFE5D8E0DEBFCDBF12
:1000600010E0A0E6B0E0E6EBF8E102C005900D92EA
:10007000AC3BB107D9F715E0ACEBB0E001C01D9285
:10008000A436B107E1F70E947D070C94590C0C943B
:10009000000020E010C0822F90E0FC0163E0EE0F32
:1000A000FF1F6A95E1F7880F991FE80FF91FE054C9
:1000B000FB4F10822F5F243070F310C0822F90E02E
:1000C000FC0143E0EE0FFF1F4A95E1F7880F991FEF
:1000D000E80FF91FE054FB4F1482232F322F3F5FAC
:1000E000263060F3232F333030F30895CF93DF931E
:1000F000EB0141E050E05093DF044093DE0420E048
:1001000038E03093E1042093E00426E02093E204F9
:1001100024E02093E3045093E5044093E404DC01DD
:10012000E6EEF4E08D9180831286319684E0EC3E19
:10013000F807C1F7888180831286898181831386BD
:100140008A81828314868B8183831586DF91CF9188
:1001500008958091CC00883019F58091CD008630CB
:10016000F9F49091E6008091EC049817C9F490910D
:10017000E7008091ED04981799F49091E800809140
:10018000EE04981769F49091E9008091EF049817B4
:1001900039F490E08091D500823019F491E001C0EB
:1001A00090E0892F08952091BC00ACEDB0E0822F43
:1001B00090E0FC0153E0EE0FFF1F5A95E1F7880F26
:1001C000991FE80FF91FE054FB4F8D91819380E058
:1001D000A03EB807D1F71A97822F90E0FC0133E0D8
:1001E000EE0FFF1F3A95E1F7880F991FE80FF91FEF
:1001F000EC53FB4F8D91819380E0AC3DB807D1F774
:100200002F5F2093BC0008951F93BC0140E050E095
:1002100014C0FB01E20FF31F9C918081981741F4F9
:100220002330E9F02F5F3F4F11962430310589F7D5
:100230004F5F5F4F4330510589F0142FDA01AA0F49
:10024000BB1FCA01E3E0880F991FEA95E1F7A80FE9
:10025000B91FA054BB4F20E030E0DBCF15E0812F69
:100260001F9108959AE0899F900111242C533B4FD0
:10027000C9010895DF93CF9300D000D000D0CDB74F
:10028000DEB7DE011196E0E6F0E086E001900D9227
:100290008150E1F7CE0101960E94F00586E098E0DA
:1002A0000E94180626960FB6F894DEBF0FBECDBF8B
:1002B000CF91DF910895CF93DF93FC01C6EFD4E097
:1002C0008191899384E0CA3FD807D1F70E943A010F
:1002D0000E940106FE017C97908181818093CE006F
:1002E0009093CF00FE017A97908181818093D00016
:1002F0009093D100FE017697908181818093D40004
:100300009093D500FE017497A6EDB0E080818C93A8
:1003100082851A968C931A973196119684E0EC3E5A
:10032000F807A1F7ACEDB0E080818C9382851A9636
:100330008C931A973196119684E0E03FF807A1F765
:10034000DF91CF910895DF93CF9300D000D0CDB748
:10035000DEB79C0181E08093FA048093FB0486E081
:100360008093FC041092FD04109203051092020584
:1003700010920505109204058AE08093FE0484E142
:100380008093FF048EE18093000588E2809301054D
:10039000E6E0F5E01082148210861486319685E03E
:1003A000EA30F807B9F7D9013C968D91819385E041
:1003B000EC31F807D1F783E6808392E8918393E5E7
:1003C000928383830F900F900F900F90CF91DF91C6
:1003D00008958091FA048093EA008091FB04809351
:1003E000EB008091FC048093EC008091FD048093ED
:1003F000ED00AEEFB4E0EEEEF0E08C918083189665
:100400008C91189780871C968C911C9784875096A6
:100410008C915097808B54968C915497848BE85193
:10042000FF4F5E968C915E9780831196E75EF04059
:1004300085E0A230B80709F79C9111968C9111972D
:100440008093F2009093F30012969C91129713966A
:100450008C9113978093F4009093F500FD017496AE
:10046000A6E0B1E081918D9385E0EC31F807D1F7FA
:10047000E6E1F1E0119281E0E635F807D9F780E096
:10048000E82FF0E0EA5AFE4F10828F5F8038C1F704
:100490000895EAEFF0E0AAE0B5E0848114968C9329
:1004A000149781918D9380E0EE3FF807B1F78AE3CE
:1004B00008959091FE048091EE009817B1F4909108
:1004C000FF048091EF00981781F4909100058091CE
:1004D000F000981751F420E0909101058091F1000F
:1004E000981321E081E0282701C020E0822F0895A1
:1004F0008AE095E008959091FA0080910A05981796
:10050000C1F49091FB0080910B05981791F49091A4
:10051000FC0080910C05981761F49091FD0080918A
:100520000D05981731F48AE095E00E94290781E0D3
:10053000089580E00895DF93CF93CDB7DEB72E976F
:100540000FB6F894DEBF0FBECDBFDE011996E6E60A
:10055000F0E086E001900D928150E1F7CE0109961E
:100560000E94F00519821A821B821C828FEF8D83F4
:100570008E838F838887CE0101960E942907CE0142
:1005800005960E943307EEE0F5E0AEEFB0E0819112
:100590008D9385E0E231F807D1F785E38093DA01A6
:1005A00081E08093DB0183E08093DC0182E3809330
:1005B000DD0184E08093DE0180910A058093DF01F4
:1005C00080910B058093E00180910C058093E101FF
:1005D00080910D058093E2018FEF8093E30181E329
:1005E00091E02E960FB6F894DEBF0FBECDBFCF912F
:1005F000DF9108951F93DF93CF93CDB7DEB72E978A
:100600000FB6F894DEBF0FBECDBFDE011996ECE643
:10061000F0E086E001900D928150E1F7CE0109965D
:100620000E94F00519821A821B821C821FEF1D8313
:100630001E831F831887CE0101960E942907CE01D1
:1006400005960E94330785E38093DA0191E0909349
:10065000DB019093DC0187E38093DD0123E02093AD
:10066000DE019093DF0189E78093E0012093E101AF
:1006700089E38093E20182E08093E3018093E401C7
:100680008CEB8093E5018DE38093E60187E0809316
:10069000E7019093E80180E98093E90188E4809381
:1006A000EA018AE98093EB0183EB8093EC018BE80C
:1006B0008093ED018DE18093EE018CE08093EF015A
:1006C0002093F00181E48093F10186E58093F201AB
:1006D00082E58093F3011093F40182E491E02E9679
:1006E0000FB6F894DEBF0FBECDBFCF91DF911F9143
:1006F0000895C498962F9F71982B9FB9779BFECF32
:100700001FB8779BFECF67FF03C01FB8779BFECF54
:10071000C49A8FB10895C4986F71682B6FB9779B95
:10072000FECF4FB9779BFECFC49A0895AC01FB0171
:10073000C4988AE38FB9779BFECF9A01DF0107C087
:100740001FB8779BFECF215030408FB18D9321157C
:100750003105B1F7E40FF51F1082C49A08959C018A
:10076000FB01C4988AE78FB9779BFECF07C08081D1
:100770008FB9779BFECF215030403196211531053E
:10078000B1F7C49A08951F93CF93DF93182FC82F02
:10079000D0E0C076D0708091BD0090E0C817D90736
:1007A00091F080EA6FE143E00E948B0385E0D595EC
:1007B000C7958A95E1F780E86FE14C2F0E948B0383
:1007C00010761093BD00DF91CF911F9108951F9374
:1007D000182F0E94C30380E0612F0E9479031F91AC
:1007E00008950F931F93182F062F0E94C30380E4D0
:1007F000612F402F0E948B031F910F910895682F46
:1008000084ED0E94F10382ED61E00E94F10388E231
:100810008A95F1F78AEE0E94E70380FDFBCF82ED17
:1008200060E00E94F10389ED0E94E70390E00895E3
:100830000F931F93982F162F072F84ED692F0E9477
:10084000F10386ED612F0E94F10387ED602F0E9476
:10085000F10318E203C0812F8A95F1F78AEE0E9416
:10086000E70380FDF8CF1F910F910895682F6770FF
:1008700085E70E94F10308950F931F938C01BC9AA2
:10088000C49A87B3806C87BBBD9AC69AC79A80E525
:100890008DB9709A8FEF60E04FEF0E948B0380E07C
:1008A00090E00197F1F71092BF001092BE0088E02F
:1008B00060E00E94F10389E060E00E94F1038CE0B7
:1008C00060E00E94F1038DE060E00E94F1038AE0A5
:1008D0006EEF0E94F1038BE069E10E94F10384E076
:1008E0006FEF0E94F10385E069E10E94F10386E069
:1008F0006FEF0E94F10387E06FE10E94F10388E34C
:1009000060EA0E94F10388E26FE30E94F10389E24A
:1009100060E30E94F10380E369EF0E94F10381E349
:1009200067EF0E94F10380EC6DE00E94F10381EC1F
:1009300060E00E94F10380E862EC42E30E948B03D6
:1009400086EC62E10E94F10387EC6CE00E94F10307
:1009500084EC62E10E94F1038AEC6CED0E94F103E9
:100960008BEC65E00E94F10384EEF80160810E9447
:10097000F10385EEF80161810E94F10382EEF80136
:1009800062810E94F10383EEF80163810E94F1030A
:1009900080EEF80164810E94F10381EEF801658127
:1009A0000E94F10380E160E071E00E9418048FE191
:1009B0000E94C30380E86BE140EC0E948B0380E857
:1009C0006FE144E00E948B031F910F91089582E72D
:1009D0000E94E703089581E10E94FF0320E0892B34
:1009E00009F021E0822F08950F931F93CF93DF9397
:1009F000EC018B010FC08CE10E94E70381FF0AC06C
:100A000080E86FE140E80E948B0380EA6FE140E8F4
:100A10000E948B0380E06FE10E94790383FDEBCF9E
:100A200082E06FEF0E94F10383E069E10E94F1032D
:100A3000CE018150682F86E00E94F1039E01215073
:100A4000364E87E0632F0E94F1038AE760E040E0C2
:100A50000E948B03CE01B8010E94AF0380E86FE1D2
:100A600048E00E948B03DF91CF911F910F91089571
:100A700089E30E94E703811181E00895AF92BF925C
:100A8000CF92DF92EF92FF920F931F93CF93DF935A
:100A90006C015B0189E30E94E703882319F400E0FD
:100AA00010E081C00091BE001091BF0080E0602F77
:100AB0000E94F103012F110F110B81E0602F0E94A2
:100AC000F1038AE360E00E947903182F8AE360E073
:100AD0000E947903382F20E0C12FD0E0C22BD32B06
:100AE000D093BF00C093BE008AE360E00E94790308
:100AF000E82E8AE360E00E947903F82E8AE360E042
:100B00000E947903082F10E08AE360E00E947903D5
:100B1000382F20E0202B312B27FD03C000E010E010
:100B200012C00E2D10E09F2D80E0082B192BC6015E
:100B30000197045010408017910708F48C01C801F8
:100B4000B5010E9496038CE06C2F0E94F1036D2F7B
:100B5000772767FD7A958DE00E94F1038AE1C03026
:100B6000D80774F0CE018E5F682F8CE00E94F103ED
:100B7000CE5FD9416D2F772767FD7A958CE00CC049
:100B8000CE018150682F8CE00E94F10321976D2FD8
:100B9000772767FD7A958DE00E94F10380E86EE18A
:100BA00040E40E948B03C801DF91CF911F910F9108
:100BB000FF90EF90DF90CF90BF90AF900895E0E26C
:100BC000F5E0DC019FEF90838D918683319685E07F
:100BD000E632F807C1F780E098E0978386830895AE
:100BE000AC0120E030E0F901E05EFA4FDA01A20F3B
:100BF000B31F8C9180832F5F3F4F2630310599F7CB
:100C00000895E0E2F5E0A0ECB0E080818C9386816D
:100C100016968C9316973196119685E0E632F80772
:100C2000A1F7968187818093CC009093CD000895A1
:100C300090932D0580932C050895AF92BF92CF928B
:100C4000DF92EF92FF920F931F93DF93CF93CDB775
:100C5000DEB7C85CD0400FB6F894DEBF0FBECDBF84
:100C60008C016B01ADB6BEB620912E0530912F05DB
:100C700040913005509131056091320570913305F6
:100C800080913405909135050E941A0AC8018D960D
:100C90002DB73EB7281B390B0FB6F8943EBF0FBED9
:100CA0002DBFEDB6FEB60894E11CF11C20E030E04B
:100CB000F701E20FF31FD901AE58BF4F8C9180832B
:100CC0002F5F3F4F2031310599F790E108C0F701C0
:100CD000EA0FFB1FAD58BF4F8C9180839F5FA92FF8
:100CE000B0E09932A1F78DE0F70181A78AE082A7F1
:100CF0002BE2A801465D5F4F09C0F701EA0FFB1F19
:100D0000AC0DBD1D9B978C9180832F5FA22FB0E00F
:100D1000A417B50790F320912E0530912F0540912F
:100D20003005509131056091320570913305809105
:100D30003405909135058D010E94AD09CE010196D3
:100D400000912E0510912F0520913005309131052D
:100D5000409132055091330560913405709135050D
:100D60000E943D0920912E0530912F0540913005BC
:100D700050913105609132057091330580913405B1
:100D8000909135050E94A30881E090E00FB6F89499
:100D9000BEBE0FBEADBEC853DF4F0FB6F894DEBF68
:100DA0000FBECDBFCF91DF911F910F91FF90EF90BC
:100DB000DF90CF90BF90AF900895EF92FF920F9386
:100DC0001F93CF93DF93EC018B017A010E94860A77
:100DD00020E030E0F901E25DFA4FDE01A20FB31F1F
:100DE0008C9180832F5F3F4F2430310599F710930A
:100DF000330500933205F0923505E09234050E94E8
:100E00005D08DF91CF911F910F91FF90EF900895B2
:100E1000EEE3F5E010821482319685E0E234F807C3
:100E2000C9F785E4809336051092370585E090E098
:100E3000909339058093380580E090E490933B05CA
:100E400080933A0580E880933C0586E080933D05D9
:100E50000895DC01EEE3F5E08D91819385E0E234C5
:100E6000F807D1F70895DC01E2E4F5E08D91819374
:100E700085E0E634F807D1F70895AEE3B5E0EAED92
:100E8000F0E014968C91149784838D91819385E082
:100E9000A234B807B1F7809136058093CE008091D7
:100EA00037058093CF00FD013A979081818180932F
:100EB000D2009093D300FD01389790818181809377
:100EC000D4009093D50080913C058093D60080910A
:100ED0003D058093D700089580933D050895909334
:100EE000D0008093D1008EEC90E064E10E94160C5B
:100EF0009093D8008093D9000895DF93CF9300D0CA
:100F000000D0CDB7DEB70E94860A80E395E729E1DD
:100F100030E0F9013197F1F70197D9F780EC898337
:100F200088EA8A8381E08B8384E08C83CE010196FA
:100F300067E574E048E95FEF0E94DD0680E090E03D
:100F400060E070E00E941D0680E090E00F900F903E
:100F50000F900F90CF91DF9108950F931F930E94F0
:100F6000420C0E949B028C010E94E90184E490E003
:100F70000E94060C83E490E00E940B0CC8010E94C2
:100F8000100C0E94E60B81E10E946C070E943D0755
:100F90000E940106C8014C960E946F07C8018A96FC
:100FA00060EC70E00E94F4041F910F9108950F937C
:100FB0001F93CF93DF93EC018B010E94420CCE0173
:100FC0000E94100C0E94010681E10E946C070E94A1
:100FD0003D070E94E60B20E030E00AC0F901E05432
:100FE000FF4FD801A20FB31F8C9182A72F5F3F4FF5
:100FF0002C173D0798F3CE014C960E946F07CE0147
:101000008A9660EC70E00E94F404DF91CF911F910A
:101010000F9108950F931F930E94420C0E94FA02B1
:101020008C010E94E90184E490E00E94060C83E4B4
:1010300090E00E940B0CC8010E94100C0E94E60B6D
:1010400081E10E946C070E943D070E940106C801D1
:101050004C960E946F07C8018A9660EC70E00E946F
:10106000F4041F910F9108950F931F93CF93DF9373
:10107000EC010E94420C80E094E060EC70E00E9481
:101080003E0508EA11E6892B91F0FE010995F80169
:101090003197F1F7882311F081E00AC00E94420CD9
:1010A00080E094E060EC70E00E943E05ECCF80E0D0
:1010B000DF91CF911F910F9108950E940A080E941D
:1010C000420C02C00E940A0889E592E00E9434089E
:1010D0008823C1F30E9449020E94AD070895EF9250
:1010E000FF921F93CF93DF93EC017B01142F0E949B
:1010F000420C0E94010686E00E946C070E943D0798
:10110000812F0E94950B20E030E00AC0F901E054E5
:10111000FF4FD701A20FB31F8C9186AB2F5F3F4FBC
:101120002C173D0798F3CE0188960E946F07CE01D9
:10113000C69660EC70E00E94F404DF91CF911F919D
:10114000FF90EF9008951F93DF93CF93CDB7DEB755
:101150002E970FB6F894DEBF0FBECDBF2F83388712
:1011600049875A876B877C878D879E87DE0111961A
:10117000E3EAF0E086E001900D928150E1F70E94F1
:1011800078020E942907CE0107960E943307CE01FC
:1011900001960E94F0058B859C850E94E90A8D8549
:1011A0009E850E94EE0A81E090E00E946B0B60E059
:1011B00070E080E090E021E030E040E050E00E940C
:1011C000400B80E197E229E130E0F9013197F1F736
:1011D0000197D9F783EF9AE00E9434088823F9F049
:1011E00080E090E060E070E040E10E946F0815E070
:1011F000812F65E00E944D0C992339F480E090E046
:1012000060E070E041E10E946F081F5F133359F105
:1012100083EF9AE00E943408882351F324C015E03C
:10122000812F65E00E944D0C992339F480E090E015
:1012300060E070E041E10E946F081F5F133399F096
:1012400083EF9AE00E943408882351F383EF9AE0F9
:101250000E9434088823D1F380E090E060E070E0E1
:1012600040E10E946F082E960FB6F894DEBF0FBEC5
:10127000CDBFCF91DF911F910895EF92FF920F9311
:101280001F93DF93CF93CDB7DEB72E970FB6F894A9
:10129000DEBF0FBECDBF7C010F83188729873A8739
:1012A0004B875C876D877E87DE011196E9EAF0E067
:1012B00086E001900D928150E1F70E9478020E9431
:1012C0002907CE0107960E943307CE0101960E949E
:1012D000F0058B859C850E94E90A8D859E850E947C
:1012E000EE0A80E090E00E946B0B83EF9AE00E9490
:1012F00034088823D1F30E947A0B8C0120E030E07F
:101300000BC0F701E20FF31FD901A054BF4FD696CF
:101310008C9180832F5F3F4F2017310790F3980106
:1013200040E050E060E070E080E090E00E94400B20
:1013300080E090E060E070E040E10E946F08C8014A
:101340002E960FB6F894DEBF0FBECDBFCF91DF91C2
:101350001F910F91FF90EF900895CF92DF92EF923F
:10136000FF920F931F93DF93CF93CDB7DEB72E97E6
:101370000FB6F894DEBF0FBECDBF2F8338874987E5
:101380005A876B877C878D879E876801DE0111965F
:10139000EFEAF0E086E001900D928150E1F70E94C3
:1013A00078020E942907CE0107960E943307CE01DA
:1013B00001960E94F0058B859C850E94E90A8D8527
:1013C0009E850E94EE0A0E94700B823019F5C601BC
:1013D0000E946B0B15E0812F65E00E944D0C992354
:1013E00029F4C601B70148E10E946F081F5F13335B
:1013F00089F083EF9AE00E943408882361F3B601F4
:1014000080E090E020E030E040E050E00E94400BBF
:1014100081E001C080E02E960FB6F894DEBF0FBECB
:10142000CDBFCF91DF911F910F91FF90EF90DF9093
:10143000CF9008951F93DF93CF93CDB7DEB72E974C
:101440000FB6F894DEBF0FBECDBF2F833887498714
:101450005A876B877C878D879E87DE011196E5EB27
:10146000F0E086E001900D928150E1F70E94780251
:101470000E942907CE0107960E943307CE010196EC
:101480000E94F0058B859C850E94E90A8D859E85CA
:101490000E94EE0A81E090E00E946B0B15E0812F24
:1014A00065E00E944D0C992351F480E090E060E0EB
:1014B00070E042E00E946F0881E00E94730B1F5FA2
:1014C000133311F480E018C083EF9AE00E943408CF
:1014D000882329F361E070E080E090E021E030E0D3
:1014E00040E050E00E94400B80E090E060E070E05F
:1014F00040E10E946F0881E02E960FB6F894DEBF9F
:101500000FBECDBFCF91DF911F910895FF920F9332
:101510001F9382E3F82E8F2D8A95F1F70DE910E0E5
:10152000C8010E943C0482E00E943604FA94F1F75C
:10153000C8010E94DF050E9408070E94D30B0E9489
:10154000A80AC8010E94A3011F910F91FF9008955E
:1015500010924705109246051092490510924805D1
:1015600010924B0510924A0510924C0510924D05B1
:1015700010924E0510924F05109250051092510591
:10158000109252051092530580E090E59093570514
:101590008093560580E094E0909359058093580518
:1015A00010925B0510925A0508959091E20080E038
:1015B0002091E30030E0282B392BC9010895909148
:1015C000E40080E02091E50030E0282B392BC901B0
:1015D00008959093490580934805089590934B058D
:1015E00080934A050895DF93CF9300D000D0CDB704
:1015F000DEB78091540590915505A0E0B0E02091B0
:101600005005309151054091520550915305820F7C
:10161000931FA41FB51F89839A83AB83BC83FE01EC
:101620003496AAEEB0E090818C91981711F080E08A
:1016300020C031971196EC17FD07A9F78091E600BD
:1016400080934F058091E70080934E058091E800DC
:1016500080934D058091E90080934C058091EF00C7
:10166000823131F482E090E0909347058093460503
:1016700081E00F900F900F900F90CF91DF91089520
:10168000EF92FF920F931F93E0905005F090510559
:101690000091520510915305E60EF71E081F191F01
:1016A000E0925005F09251050093520510935305B6
:1016B000E0E5F5E0B291A29192918291820F931FA1
:1016C000A41FB51F80839183A283B3831F910F91C1
:1016D000FF90EF90089590935505809354050895D9
:1016E000809146050895863020F480934605109237
:1016F000470508952091EE0022952F708091CE002D
:1017000090E08F709070820F911D880F991F880F45
:10171000991F5091D00040E02091D10030E0242B5F
:10172000352B281B390BC9010895CF93DF93282F40
:1017300090914805809149058093E2009093E300E1
:1017400090914A0580914B058093E4009093E500C9
:10175000C6EED0E0EFE4F5E08481888380818C835D
:101760002196319780E0CA3ED807B1F7809156059F
:10177000909157059C83822B8D8390915805809181
:1017800059058E839F8390915A0580915B058A87C6
:101790009B87CE01089764E10E94160C9887898781
:1017A000DF91CF91089510925D0510925C05109223
:1017B0005F0510925E0588E090E09093610580934C
:1017C000600510926305109262050895ECE5F5E05E
:1017D00090915C0580915D058093E2009093E30019
:1017E00090915E0583818093E4009093E500909151
:1017F000600585818093E6009093E70090916205F3
:1018000087818093E8009093E900089590935D05A7
:1018100080935C05089590935F0580935E0508951D
:10182000089690936105809360050895EF92FF926A
:101830000F931F93FC01EE24FF24870140E050E04A
:1018400070E00FC0308120E0818190E0822B932BEB
:10185000A0E0B0E0E80EF91E0A1F1B1F4E5F5F4FAD
:1018600032964617570774F398014427552730E0FE
:101870002E0D3F1D20953095C9011F910F91FF90AE
:10188000EF90089580E094E0E0ECF0E0DF019C014F
:101890001D9221503040E1F70895991B79E004C072
:1018A000991F961708F0961B881F7A95C9F780959F
:0618B0000895F894FFCF3B
:1018B600FFFFFFFFFFFFFFFFFFFFFFFFFFFFFFFF32
:1018C600FFFF474554202F20485454502F312E31C6
:1018D6000D0A00486F73743A203139322E3136388A
:1018E6002E312E343A36353433320D0A0090489A6A
:1018F600B38B1DEC55F99012FDEC55F99012FDECE9
:0C19060055F99012FDEC55F99012FD000F
:00000001FF
