:100000000C942A000C9447000C9447000C94470071
:100010000C9447000C9447000C9447000C94470044
:100020000C9447000C9447000C9447000C94470034
:100030000C9447000C9447000C9447000C94470024
:100040000C9447000C9447000C9447000C94470014
:100050000C94470011241FBECFE5D8E0DEBFCDBF12
:1000600010E0A0E6B0E0ECE0F3E102C005900D92F4
:10007000A63CB107D9F715E0A6ECB0E001C01D928F
:10008000AE30B107E1F70E94DF040C9484090C94B0
:1000900000009C018AE08093C90484E18093CA0433
:1000A0008EE18093CB0488E28093CC04EDECF4E005
:1000B0001082148210861486319684E0E13DF807A0
:1000C000B9F7D9013C968D91819384E0E33EF8071E
:1000D000D1F7089581E08093F3008093F40086E0E7
:1000E0008093F5001092F600A9ECB4E0E7EFF0E0A1
:1000F0008C91808314968C911497808718968C919C
:10010000189784871C968C911C97808B50968C91A5
:100110005097848B1196319684E0AD3CB80741F737
:1001200083E68093DF0192E89093E00193E590935A
:10013000E1018093E2011092FB001092FC0010920A
:10014000FD001092FE00FD017096AFE0B1E08191DC
:100150008D9384E0E33EF807D1F7EFE1F1E01192EF
:1001600081E0EF35F807D9F780E0E82FF0E0E15AB9
:10017000FE4F10828F5F8038C1F70895E3E0F1E011
:10018000A1EDB4E0848114968C93149781918D93A2
:1001900081E0E730F807B1F78AE308959091C90448
:1001A0008091F7009817B1F49091CA048091F800FB
:1001B000981781F49091CB048091F900981751F42D
:1001C00020E09091CC048091FA00981321E081E026
:1001D000282701C020E0822F089581ED94E0089542
:1001E000909103018091D1049817C1F4909104017A
:1001F0008091D204981791F4909105018091D304D5
:10020000981761F4909106018091D404981731F405
:1002100081ED94E00E94950481E0089580E00895C6
:10022000DF93CF93CDB7DEB72E970FB6F894DEBF2E
:100230000FBECDBFDE011996E0E6F0E086E001904A
:100240000D928150E1F7CE0109960E946104198256
:100250001A821B821C828FEF8D838E838F83888707
:10026000CE0101960E949504CE0105960E949F043E
:10027000E5EDF4E0A7E0B1E081918D9384E0E93D04
:10028000F807D1F785E38093E30181E08093E401EF
:1002900083E08093E50182E38093E60184E080932C
:1002A000E7018091D1048093E8018091D20480938A
:1002B000E9018091D3048093EA018091D404809372
:1002C000EB018FEF8093EC0181E391E02E960FB666
:1002D000F894DEBF0FBECDBFCF91DF9108951F937D
:1002E000DF93CF93CDB7DEB72E970FB6F894DEBF6E
:1002F0000FBECDBFDE011996E6E6F0E086E0019084
:100300000D928150E1F7CE0109960E946104198295
:100310001A821B821C821FEF1D831E831F83188776
:10032000CE0101960E949504CE0105960E949F047D
:1003300085E38093E30191E09093E4019093E501DC
:1003400087E38093E60123E02093E7019093E8019F
:1003500089E78093E9012093EA0189E38093EB0127
:1003600082E08093EC018093ED018CEB8093EE01B1
:100370008DE38093EF0187E08093F0019093F1018A
:100380008EE58093F20183E68093F30188E8809301
:10039000F40182E98093F50189EC8093F60185EA06
:1003A0008093F7018CE08093F8012093F90181E4B8
:1003B0008093FA0186E58093FB0182E58093FC013E
:1003C0001093FD0182E491E02E960FB6F894DEBF03
:1003D0000FBECDBFCF91DF911F910895C498962F86
:1003E0009F71982B9FB9779BFECF1FB8779BFECF4D
:1003F00067FF03C01FB8779BFECFC49A8FB10895E3
:10040000C4986F71682B6FB9779BFECF4FB9779BFC
:10041000FECFC49A0895AC01FB01C4988AE38FB95A
:10042000779BFECF9A01DF0107C01FB8779BFECFF5
:10043000215030408FB18D9321153105B1F7E40F74
:10044000F51F1082C49A08959C01FB01C4988AE7A5
:100450008FB9779BFECF07C080818FB9779BFECF86
:1004600021503040319621153105B1F7C49A0895D5
:100470001F93CF93DF93182FC82FD0E0C076D07092
:100480008091C60090E0C817D90791F080EA6FE12B
:1004900043E00E94000285E0D595C7958A95E1F773
:1004A00080E86FE14C2F0E94000210761093C60086
:1004B000DF91CF911F9108951F93182F0E9438024A
:1004C00080E0612F0E94EE011F9108950F931F930A
:1004D000182F062F0E94380280E4612F402F0E94BF
:1004E00000021F910F910895682F84ED0E9466020B
:1004F00082ED61E00E94660288E28A95F1F78AEE59
:100500000E945C0280FDFBCF82ED60E00E946602EB
:1005100089ED0E945C0290E008950F931F93982F3D
:10052000162F072F84ED692F0E94660286ED612F3A
:100530000E94660287ED602F0E94660218E203C0E7
:10054000812F8A95F1F78AEE0E945C0280FDF8CF38
:100550001F910F910895682F677085E70E946602CA
:1005600008950F931F938C01BC9AC49A87B3806C33
:1005700087BBBD9AC69AC79A80E58DB9709A8FEFEE
:1005800060E04FEF0E94000280E090E00197F1F7F9
:100590001092C8001092C70088E060E00E946602D6
:1005A00089E060E00E9466028CE060E00E946602E2
:1005B0008DE060E00E9466028AE06EEF0E946602B3
:1005C0008BE069E10E94660284E06FEF0E946602A0
:1005D00085E069E10E94660286E06FEF0E94660294
:1005E00087E06FE10E94660288E360EA0E9466028B
:1005F00088E26FE30E94660289E260E30E9466027D
:1006000080E369EF0E94660281E367EF0E94660261
:1006100080EC6DE00E94660281EC60E00E94660260
:1006200080E862EC42E30E94000286EC62E10E94F4
:10063000660287EC6CE00E94660284EC62E10E9434
:1006400066028AEC6CED0E9466028BEC65E00E940B
:10065000660284EEF80160810E94660285EEF80170
:1006600061810E94660282EEF80162810E94660248
:1006700083EEF80163810E94660280EEF8016481D6
:100680000E94660281EEF80165810E94660280E1A7
:1006900060E071E00E948D028FE10E94380280E8E4
:1006A0006BE140EC0E94000280E86FE144E00E94B0
:1006B00000021F910F91089582E70E945C02089545
:1006C00081E10E94740220E0892B09F021E0822F51
:1006D00008950F931F93CF93DF93EC018B010FC00D
:1006E0008CE10E945C0281FF0AC080E86FE140E873
:1006F0000E94000280EA6FE140E80E94000280E070
:100700006FE10E94EE0183FDEBCF82E06FEF0E946C
:10071000660283E069E10E946602CE018150682F83
:1007200086E00E9466029E012150364E87E0632FCC
:100730000E9466028AE760E040E00E940002CE016B
:10074000B8010E94240280E86FE148E00E940002A4
:10075000DF91CF911F910F91089589E30E945C0270
:10076000811181E00895AF92BF92CF92DF92EF9214
:10077000FF920F931F93CF93DF936C015B0189E38B
:100780000E945C02882319F400E010E081C000910F
:10079000C7001091C80080E0602F0E946602012F00
:1007A000110F110B81E0602F0E9466028AE360E066
:1007B0000E94EE01182F8AE360E00E94EE01382FBC
:1007C00020E0C12FD0E0C22BD32BD093C800C09320
:1007D000C7008AE360E00E94EE01E82E8AE360E051
:1007E0000E94EE01F82E8AE360E00E94EE01082FDD
:1007F00010E08AE360E00E94EE01382F20E0202B19
:10080000312B27FD03C000E010E012C00E2D10E0D8
:100810009F2D80E0082B192BC60101970450104032
:100820008017910708F48C01C801B5010E940B02E2
:100830008CE06C2F0E9466026D2F772767FD7A95FA
:100840008DE00E9466028AE1C030D80774F0CE01C4
:100850008E5F682F8CE00E946602CE5FD9416D2FBB
:10086000772767FD7A958CE00CC0CE018150682F08
:100870008CE00E94660221976D2F772767FD7A959D
:100880008DE00E94660280E86EE140E40E94000272
:10089000C801DF91CF911F910F91FF90EF90DF90F2
:1008A000CF90BF90AF900895E3EEF4E0DC019FEFAE
:1008B00090838D918683319684E0E93EF807C1F7F5
:1008C0000895AC0120E030E0F901ED51FB4FDA0171
:1008D000A20FB31F8C9180832F5F3F4F26303105CD
:1008E00099F70895E3EEF4E0A9ECB0E080818C93F1
:1008F000868116968C9316973196119684E0E93E80
:10090000F807A1F788E08093D5001092D6000895EB
:10091000E0EFF4E010821482319684E0E43FF807BF
:10092000C9F786E08093EF040895DC01E0EFF4E07E
:100930008D91819384E0E43FF807D1F70895DC01BD
:10094000E4EFF4E08D91819384E0E83FF807D1F77C
:100950000895E0EFF4E0A3EEB0E0848114968C9368
:10096000149781918D9384E0E43FF807B1F785E413
:100970008093D7001092D8001092DB0085E080931E
:10098000DC0080E48093DD001092DE0080E880933C
:10099000DF008091EF048093E00008958093EF04DE
:1009A00008959093D9008093DA0087ED90E064E198
:1009B0000E9441099093E1008093E2000895EF9234
:1009C000FF920F931F93DF93CF93CDB7DEB7EC97D2
:1009D0000FB6F894DEBF0FBECDBF0E94D2070E94B3
:1009E000B905DE011196ECE6F0E08CE301900D9282
:1009F0008150E1F77E010894E11CF11C09E110E04F
:100A00008CE390E0B7010E94690380E395E7F80169
:100A10003197F1F70197D9F7F3CF0F931F930E9406
:100A20006D090E9410018C010E946A0084E490E02C
:100A30000E94370983E490E00E943C09C8010E94AB
:100A40001D0981E10E94CE040E94A9040E94720443
:100A5000C801CA960E94D104C801885B9F4F69EC07
:100A600070E00E9469031F910F9108950F931F93E7
:100A7000CF93DF93EC018B010E946D090E947204F9
:100A800081E10E94CE040E94A904CE010E941D09AA
:100A900020E030E00AC0F901E753FF4FD801A20F70
:100AA000B31F8C9182A72F5F3F4F2C173D0798F300
:100AB000CE014C960E94D104CE018A9669EC70E07A
:100AC0000E946903DF91CF911F910F9108950F93B9
:100AD0001F930E946D090E946F018C010E946A00A1
:100AE00084E490E00E94370983E490E00E943C098E
:100AF000C8010E941D0981E10E94CE040E94A90440
:100B00000E947204C801CA960E94D104C801885B81
:100B10009F4F69EC70E00E9469031F910F91089547
:100B20000F931F93CF93DF93EC010E946D0980E038
:100B300094E069EC70E00E94B30308EA11E6892BA7
:100B400091F0FE010995F8013197F1F7882311F032
:100B500081E00AC00E946D0980E094E069EC70E0D9
:100B60000E94B303ECCF80E0DF91CF911F910F91F2
:100B700008950E9467050E946D0902C00E946705E2
:100B80008EEC90E00E9490058823C1F30E94BE0085
:100B90000E940D050895EF92FF921F93CF93DF936C
:100BA000EC017B01142F0E946D090E94720486E003
:100BB0000E94CE040E94A904812F0E94DD0820E03B
:100BC00030E00AC0F901E753FF4FD701A20FB31F6E
:100BD0008C9186AB2F5F3F4F2C173D0798F3CE01CA
:100BE00088960E94D104CE01C69669EC70E00E94FE
:100BF0006903DF91CF911F91FF90EF9008951F93AC
:100C0000DF93CF93CDB7DEB72E970FB6F894DEBF44
:100C10000FBECDBF2F83388749875A876B877C8764
:100C20008D879E87DE011196EEEAF0E086E0019066
:100C30000D928150E1F70E94ED000E949504CE01D3
:100C400007960E949F04CE0101960E9461048B8545
:100C50009C850E942B088D859E850E94300881E02E
:100C600090E00E94B30860E070E080E090E021E056
:100C700030E040E050E00E94880880E197E229E1FE
:100C800030E0F9013197F1F70197D9F785E398E062
:100C90000E9490058823F9F080E090E060E070E029
:100CA00040E10E94CB0515E0812F65E00E947809A4
:100CB000992339F480E090E060E070E041E10E9427
:100CC000CB051F5F133369F185E398E00E9490051F
:100CD000882351F324C015E0812F65E00E94780934
:100CE000992339F480E090E060E070E041E10E94F7
:100CF000CB051F5F1333A9F085E398E00E949005B0
:100D0000882351F385E398E00E9490058823D1F36E
:100D100080E090E060E070E040E10E94CB0581E07F
:100D200001C080E02E960FB6F894DEBF0FBECDBF97
:100D3000CF91DF911F9108950F931F93DF93CF936E
:100D4000CDB7DEB72E970FB6F894DEBF0FBECDBF7E
:100D50000F83188729873A874B875C876D877E8743
:100D6000DE011196E4EBF0E086E001900D928150F7
:100D7000E1F70E94ED000E949504CE0107960E94C3
:100D80009F04CE0101960E9461048B859C850E9480
:100D90002B088D859E850E94300880E090E00E949F
:100DA000B30885E398E00E9490058823D1F30E9460
:100DB000C2088C019C0140E050E060E070E080E0FF
:100DC00090E00E94880880E090E060E070E040E100
:100DD0000E94CB05C8012E960FB6F894DEBF0FBE59
:100DE000CDBFCF91DF911F910F910895CF92DF92E8
:100DF000EF92FF920F931F93DF93CF93CDB7DEB7A0
:100E00002E970FB6F894DEBF0FBECDBF2F83388765
:100E100049875A876B877C878D879E876801DE01AB
:100E20001196EAEBF0E086E001900D928150E1F737
:100E30000E94ED000E949504CE0107960E949F0437
:100E4000CE0101960E9461048B859C850E942B082F
:100E50008D859E850E9430080E94B808823019F561
:100E6000C6010E94B30815E0812F65E00E94780951
:100E7000992329F4C601B70148E10E94CB051F5F01
:100E8000133389F085E398E00E949005882361F38D
:100E9000B60180E090E020E030E040E050E00E94C9
:100EA000880881E001C080E02E960FB6F894DEBF7E
:100EB0000FBECDBFCF91DF911F910F91FF90EF90AB
:100EC000DF90CF9008951F93DF93CF93CDB7DEB718
:100ED0002E970FB6F894DEBF0FBECDBF2F83388795
:100EE00049875A876B877C878D879E87DE0111969D
:100EF000E0ECF0E086E001900D928150E1F70E9475
:100F0000ED000E949504CE0107960E949F04CE0139
:100F100001960E9461048B859C850E942B088D851B
:100F20009E850E94300881E090E00E94B30815E0A1
:100F3000812F65E00E947809992351F480E090E0C8
:100F400060E070E042E00E94CB0581E00E94BB08B7
:100F50001F5F133311F480E01BC085E398E00E940B
:100F60009005882329F361E070E080E090E021E0C3
:100F700030E040E050E00E94880880E090E060E0CF
:100F800070E040E10E94CB0582E00E94BB0881E056
:100F90002E960FB6F894DEBF0FBECDBFCF91DF9176
:100FA0001F910895FF920F931F9382E3F82E8F2DC8
:100FB0008A95F1F708EA10E0C8010E94B10282E0C8
:100FC0000E94AB02FA94F1F7C8010E9454040E94F7
:100FD00088040E9414090E94F407C8010E94490075
:100FE0001F910F91FF9008951092F9041092F80448
:100FF0001092FB041092FA041092FD041092FC046B
:101000001092FE041092FF04109200051092010548
:101010001092020510920305109204051092050526
:1010200080E090E5909309058093080508959091DC
:10103000EB0080E02091EC0030E0282B392BC90137
:1010400008959091ED0080E02091EE0030E0282B93
:10105000392BC90108959093FB048093FA040895F5
:101060009093FD048093FC040895DF93CF9300D008
:1010700000D0CDB7DEB78091060590910705A0E0BE
:10108000B0E0209102053091030540910405509194
:101090000505820F931FA41FB51F89839A83AB8315
:1010A000BC83FE013496A3EFB0E090818C91981739
:1010B00011F080E026C031971196EC17FD07A9F7D3
:1010C0008091EF00809301058091F00080930005EE
:1010D0008091F1008093FF048091F2008093FE04E0
:1010E0008091F800813011F0813151F48091F80441
:1010F000823031F485E090E09093F9048093F80415
:1011000081E00F900F900F900F90CF91DF91089595
:10111000EF92FF920F931F93E0900205F09003056A
:101120000091040510910505E60EF71E081F191F12
:10113000E0920205F0920305009304051093050563
:10114000E2E0F5E0B291A29192918291820F931F19
:10115000A41FB51F80839183A283B3831F910F9136
:10116000FF90EF90089590930705809306050895EA
:101170008091F8040895863020F48093F80410924A
:10118000F90408952091F70022952F708091D700DF
:1011900090E08F709070820F911D880F991F880FBB
:1011A000991F5091D90040E02091DA0030E0242BC3
:1011B000352B281B390BC9010895CF93DF93282FB6
:1011C0009091FA048091FB048093EB009093EC00E3
:1011D0009091FC048091FD048093ED009093EE00CB
:1011E000CFEED0E0E1E0F5E08481888380818C83DC
:1011F0002196319780E0C33FD807B1F78091080569
:10120000909109059C83822B8D8380E48E831F82BD
:101210001A861B86CE01089764E10E9441099887CF
:101220008987DF91CF91089510920B0510920A05DE
:1012300010920D0510920C050895089630910A053C
:1012400020910B052093EB003093EC0030910C05BE
:1012500020910D052093ED003093EE009093EF0068
:101260008093F0001092F1001092F2000895909394
:101270000B0580930A05089590930D0580930C0546
:101280000895EF92FF920F931F93FC01EE24FF2429
:10129000870140E050E070E00FC0308120E08181A4
:1012A00090E0822B932BA0E0B0E0E80EF91E0A1F1D
:1012B0001B1F4E5F5F4F32964617570774F3980116
:1012C0004427552730E02E0D3F1D20953095C9014C
:1012D0001F910F91FF90EF90089580E094E0E9EC6A
:1012E000F0E0DF019C011D9221503040E1F70895AC
:1012F000991B79E004C0991F961708F0961B881F68
:0C1300007A95C9F780950895F894FFCF06
:10130C00FFFFFFFFFFFFFFFFFFFFFFFFFFFFFFFFE1
:10131C00FFFF5E638892C9A508004500002E0000FF
:10132C0040004011B761C0A80105C0A80108000A1F
:10133C000457001A77FB00000000000000000000BA
:10134C0000000000000000005E638892C9A5EC5507
:10135C00F99012FDEC55F99012FDEC55F99012FD37
:06136C00EC55F99012FDA2
:00000001FF
